{
  "_format": "hh-sol-artifact-1",
  "contractName": "AmplificationUtils",
  "sourceName": "contracts/AmplificationUtils.sol",
  "abi": [
    {
      "anonymous": false,
      "inputs": [
        {
          "indexed": false,
          "internalType": "uint256",
          "name": "oldA",
          "type": "uint256"
        },
        {
          "indexed": false,
          "internalType": "uint256",
          "name": "newA",
          "type": "uint256"
        },
        {
          "indexed": false,
          "internalType": "uint256",
          "name": "initialTime",
          "type": "uint256"
        },
        {
          "indexed": false,
          "internalType": "uint256",
          "name": "futureTime",
          "type": "uint256"
        }
      ],
      "name": "RampA",
      "type": "event"
    },
    {
      "anonymous": false,
      "inputs": [
        {
          "indexed": false,
          "internalType": "uint256",
          "name": "currentA",
          "type": "uint256"
        },
        {
          "indexed": false,
          "internalType": "uint256",
          "name": "time",
          "type": "uint256"
        }
      ],
      "name": "StopRampA",
      "type": "event"
    },
    {
      "inputs": [],
      "name": "A_PRECISION",
      "outputs": [
        {
          "internalType": "uint256",
          "name": "",
          "type": "uint256"
        }
      ],
      "stateMutability": "view",
      "type": "function"
    },
    {
      "inputs": [],
      "name": "MAX_A",
      "outputs": [
        {
          "internalType": "uint256",
          "name": "",
          "type": "uint256"
        }
      ],
      "stateMutability": "view",
      "type": "function"
    }
  ],
  "bytecode": "0x6109e9610026600b82828239805160001a60731461001957fe5b30600052607381538281f3fe730000000000000000000000000000000000000000301460806040526004361061006c5760003560e01c8063396984151461007157806358fdd79b1461008f578063b0a14cfc146100de578063c9b64dcb14610120578063d011f91814610162578063f14e211e14610180575b600080fd5b6100796101bb565b6040518082815260200191505060405180910390f35b81801561009b57600080fd5b506100dc600480360360608110156100b257600080fd5b810190808035906020019092919080359060200190929190803590602001909291905050506101c2565b005b61010a600480360360208110156100f457600080fd5b810190808035906020019092919050505061051f565b6040518082815260200191505060405180910390f35b61014c6004803603602081101561013657600080fd5b8101908080359060200190929190505050610544565b6040518082815260200191505060405180910390f35b61016a610556565b6040518082815260200191505060405180910390f35b81801561018c57600080fd5b506101b9600480360360208110156101a357600080fd5b810190808035906020019092919050505061055b565b005b620f424081565b6101dc62015180846002015461064890919063ffffffff16565b421015610251576040517f08c379a000000000000000000000000000000000000000000000000000000000815260040180806020018281038252601f8152602001807f57616974203120646179206265666f7265207374617274696e672072616d700081525060200191505060405180910390fd5b610267621275004261064890919063ffffffff16565b8110156102dc576040517f08c379a00000000000000000000000000000000000000000000000000000000081526004018080602001828103825260168152602001807f496e73756666696369656e742072616d702074696d650000000000000000000081525060200191505060405180910390fd5b6000821180156102ee5750620f424082105b610360576040517f08c379a00000000000000000000000000000000000000000000000000000000081526004018080602001828103825260208152602001807f667574757265415f206d757374206265203e203020616e64203c204d41585f4181525060200191505060405180910390fd5b600061036b846106d0565b9050600061038360648561080090919063ffffffff16565b90508181101561041b57816103a260028361080090919063ffffffff16565b1015610416576040517f08c379a00000000000000000000000000000000000000000000000000000000081526004018080602001828103825260158152602001807f667574757265415f20697320746f6f20736d616c6c000000000000000000000081525060200191505060405180910390fd5b6104a5565b61042f60028361080090919063ffffffff16565b8111156104a4576040517f08c379a00000000000000000000000000000000000000000000000000000000081526004018080602001828103825260158152602001807f667574757265415f20697320746f6f206c61726765000000000000000000000081525060200191505060405180910390fd5b5b8185600001819055508085600101819055504285600201819055508285600301819055507fa2b71ec6df949300b59aab36b55e189697b750119dd349fcfa8c0f779e83c254828242866040518085815260200184815260200183815260200182815260200194505050505060405180910390a15050505050565b600061053d606461052f846106d0565b61088690919063ffffffff16565b9050919050565b600061054f826106d0565b9050919050565b606481565b428160030154116105d4576040517f08c379a00000000000000000000000000000000000000000000000000000000081526004018080602001828103825260178152602001807f52616d7020697320616c72656164792073746f7070656400000000000000000081525060200191505060405180910390fd5b60006105df826106d0565b90508082600001819055508082600101819055504282600201819055504282600301819055507f46e22fb3709ad289f62ce63d469248536dbc78d82b84a3d7e74ad606dc2019388142604051808381526020018281526020019250505060405180910390a15050565b6000808284019050838110156106c6576040517f08c379a000000000000000000000000000000000000000000000000000000000815260040180806020018281038252601b8152602001807f536166654d6174683a206164646974696f6e206f766572666c6f77000000000081525060200191505060405180910390fd5b8091505092915050565b60008082600301549050600083600101549050814210156107f5576000846002015490506000856000015490508083111561077d5761077261076361071e848761090f90919063ffffffff16565b610755610734864261090f90919063ffffffff16565b610747868961090f90919063ffffffff16565b61080090919063ffffffff16565b61088690919063ffffffff16565b8261064890919063ffffffff16565b9450505050506107fb565b6107ea6107db610796848761090f90919063ffffffff16565b6107cd6107ac864261090f90919063ffffffff16565b6107bf888761090f90919063ffffffff16565b61080090919063ffffffff16565b61088690919063ffffffff16565b8261090f90919063ffffffff16565b9450505050506107fb565b80925050505b919050565b6000808314156108135760009050610880565b600082840290508284828161082457fe5b041461087b576040517f08c379a00000000000000000000000000000000000000000000000000000000081526004018080602001828103825260218152602001806109936021913960400191505060405180910390fd5b809150505b92915050565b60008082116108fd576040517f08c379a000000000000000000000000000000000000000000000000000000000815260040180806020018281038252601a8152602001807f536166654d6174683a206469766973696f6e206279207a65726f00000000000081525060200191505060405180910390fd5b81838161090657fe5b04905092915050565b600082821115610987576040517f08c379a000000000000000000000000000000000000000000000000000000000815260040180806020018281038252601e8152602001807f536166654d6174683a207375627472616374696f6e206f766572666c6f77000081525060200191505060405180910390fd5b81830390509291505056fe536166654d6174683a206d756c7469706c69636174696f6e206f766572666c6f77a26469706673582212202742638debb5e5c8403c6ba3f0b42b34300be6cc2b19e6c01ee7f1402b05ca3464736f6c634300060c0033",
  "linkReferences": {},
  "deployedLinkReferences": {}
}