{
  "_format": "hh-sol-artifact-1",
  "contractName": "SwapUtils",
  "sourceName": "contracts/SwapUtils.sol",
  "abi": [
    {
      "anonymous": false,
      "inputs": [
        {
          "indexed": true,
          "internalType": "address",
          "name": "provider",
          "type": "address"
        },
        {
          "indexed": false,
          "internalType": "uint256[]",
          "name": "tokenAmounts",
          "type": "uint256[]"
        },
        {
          "indexed": false,
          "internalType": "uint256[]",
          "name": "fees",
          "type": "uint256[]"
        },
        {
          "indexed": false,
          "internalType": "uint256",
          "name": "invariant",
          "type": "uint256"
        },
        {
          "indexed": false,
          "internalType": "uint256",
          "name": "lpTokenSupply",
          "type": "uint256"
        }
      ],
      "name": "AddLiquidity",
      "type": "event"
    },
    {
      "anonymous": false,
      "inputs": [
        {
          "indexed": false,
          "internalType": "uint256",
          "name": "newAdminFee",
          "type": "uint256"
        }
      ],
      "name": "NewAdminFee",
      "type": "event"
    },
    {
      "anonymous": false,
      "inputs": [
        {
          "indexed": false,
          "internalType": "uint256",
          "name": "newSwapFee",
          "type": "uint256"
        }
      ],
      "name": "NewSwapFee",
      "type": "event"
    },
    {
      "anonymous": false,
      "inputs": [
        {
          "indexed": true,
          "internalType": "address",
          "name": "provider",
          "type": "address"
        },
        {
          "indexed": false,
          "internalType": "uint256[]",
          "name": "tokenAmounts",
          "type": "uint256[]"
        },
        {
          "indexed": false,
          "internalType": "uint256",
          "name": "lpTokenSupply",
          "type": "uint256"
        }
      ],
      "name": "RemoveLiquidity",
      "type": "event"
    },
    {
      "anonymous": false,
      "inputs": [
        {
          "indexed": true,
          "internalType": "address",
          "name": "provider",
          "type": "address"
        },
        {
          "indexed": false,
          "internalType": "uint256[]",
          "name": "tokenAmounts",
          "type": "uint256[]"
        },
        {
          "indexed": false,
          "internalType": "uint256[]",
          "name": "fees",
          "type": "uint256[]"
        },
        {
          "indexed": false,
          "internalType": "uint256",
          "name": "invariant",
          "type": "uint256"
        },
        {
          "indexed": false,
          "internalType": "uint256",
          "name": "lpTokenSupply",
          "type": "uint256"
        }
      ],
      "name": "RemoveLiquidityImbalance",
      "type": "event"
    },
    {
      "anonymous": false,
      "inputs": [
        {
          "indexed": true,
          "internalType": "address",
          "name": "provider",
          "type": "address"
        },
        {
          "indexed": false,
          "internalType": "uint256",
          "name": "lpTokenAmount",
          "type": "uint256"
        },
        {
          "indexed": false,
          "internalType": "uint256",
          "name": "lpTokenSupply",
          "type": "uint256"
        },
        {
          "indexed": false,
          "internalType": "uint256",
          "name": "boughtId",
          "type": "uint256"
        },
        {
          "indexed": false,
          "internalType": "uint256",
          "name": "tokensBought",
          "type": "uint256"
        }
      ],
      "name": "RemoveLiquidityOne",
      "type": "event"
    },
    {
      "anonymous": false,
      "inputs": [
        {
          "indexed": true,
          "internalType": "address",
          "name": "buyer",
          "type": "address"
        },
        {
          "indexed": false,
          "internalType": "uint256",
          "name": "tokensSold",
          "type": "uint256"
        },
        {
          "indexed": false,
          "internalType": "uint256",
          "name": "tokensBought",
          "type": "uint256"
        },
        {
          "indexed": false,
          "internalType": "uint128",
          "name": "soldId",
          "type": "uint128"
        },
        {
          "indexed": false,
          "internalType": "uint128",
          "name": "boughtId",
          "type": "uint128"
        }
      ],
      "name": "TokenSwap",
      "type": "event"
    },
    {
      "inputs": [],
      "name": "MAX_ADMIN_FEE",
      "outputs": [
        {
          "internalType": "uint256",
          "name": "",
          "type": "uint256"
        }
      ],
      "stateMutability": "view",
      "type": "function"
    },
    {
      "inputs": [],
      "name": "MAX_SWAP_FEE",
      "outputs": [
        {
          "internalType": "uint256",
          "name": "",
          "type": "uint256"
        }
      ],
      "stateMutability": "view",
      "type": "function"
    },
    {
      "inputs": [],
      "name": "POOL_PRECISION_DECIMALS",
      "outputs": [
        {
          "internalType": "uint8",
          "name": "",
          "type": "uint8"
        }
      ],
      "stateMutability": "view",
      "type": "function"
    }
  ],
  "bytecode": "0x61590662000027600b82828239805160001a60731461001a57fe5b30600052607381538281f3fe73000000000000000000000000000000000000000030146080604052600436106101155760003560e01c806371906c2c116100ac578063a5397b221161007b578063a5397b221461070d578063ab3d85441461078a578063e0692742146107a8578063e7a4db8114610801578063f3de03621461087157610115565b806371906c2c146104ed57806373fd6b3e1461052f5780637d0481601461061e578063834b49101461066a57610115565b8063467e186c116100e8578063467e186c146103705780634b23603c146103b5578063704672761461041b57806370703e4a1461046057610115565b80630296ab501461011a57806324c5c7511461013b57806340370edf1461019657806341b91c2614610283575b600080fd5b61012261088f565b604051808260ff16815260200191505060405180910390f35b81801561014757600080fd5b506101946004803603604081101561015e57600080fd5b8101908080359060200190929190803573ffffffffffffffffffffffffffffffffffffffff169060200190929190505050610894565b005b8180156101a257600080fd5b5061026d600480360360608110156101b957600080fd5b8101908080359060200190929190803590602001906401000000008111156101e057600080fd5b8201836020820111156101f257600080fd5b8035906020019184602083028401116401000000008311171561021457600080fd5b919080806020026020016040519081016040528093929190818152602001838360200280828437600081840152601f19601f82011690508083019250505050505050919291929080359060200190929190505050610a5f565b6040518082815260200191505060405180910390f35b81801561028f57600080fd5b5061035a600480360360608110156102a657600080fd5b8101908080359060200190929190803590602001906401000000008111156102cd57600080fd5b8201836020820111156102df57600080fd5b8035906020019184602083028401116401000000008311171561030157600080fd5b919080806020026020016040519081016040528093929190818152602001838360200280828437600081840152601f19601f82011690508083019250505050505050919291929080359060200190929190505050611626565b6040518082815260200191505060405180910390f35b81801561037c57600080fd5b506103b36004803603604081101561039357600080fd5b8101908080359060200190929190803590602001909291905050506120b0565b005b610405600480360360808110156103cb57600080fd5b8101908080359060200190929190803560ff169060200190929190803560ff1690602001909291908035906020019092919050505061216e565b6040518082815260200191505060405180910390f35b81801561042757600080fd5b5061045e6004803603604081101561043e57600080fd5b8101908080359060200190929190803590602001909291905050506121dc565b005b6104966004803603604081101561047657600080fd5b81019080803590602001909291908035906020019092919050505061229b565b6040518080602001828103825283818151815260200191508051906020019060200280838360005b838110156104d95780820151818401526020810190506104be565b505050509050019250505060405180910390f35b6105196004803603602081101561050357600080fd5b81019080803590602001909291905050506123a6565b6040518082815260200191505060405180910390f35b81801561053b57600080fd5b506105c76004803603606081101561055257600080fd5b8101908080359060200190929190803590602001909291908035906020019064010000000081111561058357600080fd5b82018360208201111561059557600080fd5b803590602001918460208302840111640100000000831117156105b757600080fd5b90919293919293905050506124bf565b6040518080602001828103825283818151815260200191508051906020019060200280838360005b8381101561060a5780820151818401526020810190506105ef565b505050509050019250505060405180910390f35b6106546004803603604081101561063457600080fd5b810190808035906020019092919080359060200190929190505050612a90565b6040518082815260200191505060405180910390f35b6106f76004803603606081101561068057600080fd5b8101908080359060200190929190803590602001906401000000008111156106a757600080fd5b8201836020820111156106b957600080fd5b803590602001918460208302840111640100000000831117156106db57600080fd5b9091929391929390803515159060200190929190505050612c1c565b6040518082815260200191505060405180910390f35b81801561071957600080fd5b50610774600480360360a081101561073057600080fd5b8101908080359060200190929190803560ff169060200190929190803560ff1690602001909291908035906020019092919080359060200190929190505050612f21565b6040518082815260200191505060405180910390f35b6107926134d1565b6040518082815260200191505060405180910390f35b6107eb600480360360608110156107be57600080fd5b810190808035906020019092919080359060200190929190803560ff1690602001909291905050506134d9565b6040518082815260200191505060405180910390f35b81801561080d57600080fd5b5061085b6004803603608081101561082457600080fd5b810190808035906020019092919080359060200190929190803560ff1690602001909291908035906020019092919050505061359a565b6040518082815260200191505060405180910390f35b610879613ac0565b6040518082815260200191505060405180910390f35b601281565b60608260070180548060200260200160405190810160405280929190818152602001828054801561091a57602002820191906000526020600020905b8160009054906101000a900473ffffffffffffffffffffffffffffffffffffffff1673ffffffffffffffffffffffffffffffffffffffff16815260200190600101908083116108d0575b5050505050905060005b8151811015610a5957600082828151811061093b57fe5b602002602001015190506000610a1486600901848154811061095957fe5b90600052602060002001548373ffffffffffffffffffffffffffffffffffffffff166370a08231306040518263ffffffff1660e01b8152600401808273ffffffffffffffffffffffffffffffffffffffff16815260200191505060206040518083038186803b1580156109cb57600080fd5b505afa1580156109df573d6000803e3d6000fd5b505050506040513d60208110156109f557600080fd5b8101908080519060200190929190505050613ac990919063ffffffff16565b905060008114610a4a57610a4985828473ffffffffffffffffffffffffffffffffffffffff16613b4c9092919063ffffffff16565b5b50508080600101915050610924565b50505050565b6000606084600701805480602002602001604051908101604052809291908181526020018280548015610ae757602002820191906000526020600020905b8160009054906101000a900473ffffffffffffffffffffffffffffffffffffffff1673ffffffffffffffffffffffffffffffffffffffff1681526020019060010190808311610a9d575b505050505090508051845114610b65576040517f08c379a00000000000000000000000000000000000000000000000000000000081526004018080602001828103825260208152602001807f416d6f756e7473206d757374206d6174636820706f6f6c656420746f6b656e7381525060200191505060405180910390fd5b610b6d615748565b604051806101000160405280600081526020016000815260200160008152602001610b9788613bee565b81526020018760060160009054906101000a900473ffffffffffffffffffffffffffffffffffffffff1673ffffffffffffffffffffffffffffffffffffffff1681526020016000815260200187600901805480602002602001604051908101604052809291908181526020018280548015610c3157602002820191906000526020600020905b815481526020019060010190808311610c1d575b5050505050815260200187600801805480602002602001604051908101604052809291908181526020018280548015610c8957602002820191906000526020600020905b815481526020019060010190808311610c75575b50505050508152509050806080015173ffffffffffffffffffffffffffffffffffffffff166318160ddd6040518163ffffffff1660e01b815260040160206040518083038186803b158015610cdd57600080fd5b505afa158015610cf1573d6000803e3d6000fd5b505050506040513d6020811015610d0757600080fd5b81019080805190602001909291905050508160a001818152505060008160a0015114610d5657610d4c610d428260c001518360e00151613c00565b8260600151613d3e565b8160000181815250505b6060825167ffffffffffffffff81118015610d7057600080fd5b50604051908082528060200260200182016040528015610d9f5781602001602082028036833780820191505090505b50905060005b83518110156110b15760008360a00151141580610dd557506000878281518110610dcb57fe5b6020026020010151115b610e47576040517f08c379a000000000000000000000000000000000000000000000000000000000815260040180806020018281038252601e8152602001807f4d75737420737570706c7920616c6c20746f6b656e7320696e20706f6f6c000081525060200191505060405180910390fd5b6000878281518110610e5557fe5b60200260200101511461104f576000848281518110610e7057fe5b602002602001015173ffffffffffffffffffffffffffffffffffffffff166370a08231306040518263ffffffff1660e01b8152600401808273ffffffffffffffffffffffffffffffffffffffff16815260200191505060206040518083038186803b158015610ede57600080fd5b505afa158015610ef2573d6000803e3d6000fd5b505050506040513d6020811015610f0857600080fd5b81019080805190602001909291905050509050610f6e33308a8581518110610f2c57fe5b6020026020010151888681518110610f4057fe5b602002602001015173ffffffffffffffffffffffffffffffffffffffff16613fbf909392919063ffffffff16565b61103581868481518110610f7e57fe5b602002602001015173ffffffffffffffffffffffffffffffffffffffff166370a08231306040518263ffffffff1660e01b8152600401808273ffffffffffffffffffffffffffffffffffffffff16815260200191505060206040518083038186803b158015610fec57600080fd5b505afa158015611000573d6000803e3d6000fd5b505050506040513d602081101561101657600080fd5b8101908080519060200190929190505050613ac990919063ffffffff16565b88838151811061104157fe5b602002602001018181525050505b61108c87828151811061105e57fe5b60200260200101518460c00151838151811061107657fe5b602002602001015161408090919063ffffffff16565b82828151811061109857fe5b6020026020010181815250508080600101915050610da5565b506110cd6110c3828460e00151613c00565b8360600151613d3e565b8260200181815250508160000151826020015111611153576040517f08c379a00000000000000000000000000000000000000000000000000000000081526004018080602001828103825260118152602001807f442073686f756c6420696e63726561736500000000000000000000000000000081525060200191505060405180910390fd5b81602001518260400181815250506060835167ffffffffffffffff8111801561117b57600080fd5b506040519080825280602002602001820160405280156111aa5781602001602082028036833780820191505090505b50905060008360a00151146113945760006111ca89600401548651614108565b905060005b855181101561136957600061121e86600001516112108860c0015185815181106111f557fe5b6020026020010151896020015161415d90919063ffffffff16565b6141e390919063ffffffff16565b905061126f6402540be40061126161125288868151811061123b57fe5b60200260200101518561426c90919063ffffffff16565b8661415d90919063ffffffff16565b6141e390919063ffffffff16565b84838151811061127b57fe5b6020026020010181815250506112ed6112cb6402540be4006112bd8e600501548887815181106112a757fe5b602002602001015161415d90919063ffffffff16565b6141e390919063ffffffff16565b8684815181106112d757fe5b6020026020010151613ac990919063ffffffff16565b8b60090183815481106112fc57fe5b906000526020600020018190555061134384838151811061131957fe5b602002602001015186848151811061132d57fe5b6020026020010151613ac990919063ffffffff16565b85838151811061134f57fe5b6020026020010181815250505080806001019150506111cf565b5061138561137b848660e00151613c00565b8560600151613d3e565b846040018181525050506113ae565b818860090190805190602001906113ac9291906157a3565b505b6000808460a0015114156113c85783602001519050611412565b61140f84600001516114018660a001516113f388600001518960400151613ac990919063ffffffff16565b61415d90919063ffffffff16565b6141e390919063ffffffff16565b90505b86811015611488576040517f08c379a000000000000000000000000000000000000000000000000000000000815260040180806020018281038252601b8152602001807f436f756c646e2774206d696e74206d696e20726571756573746564000000000081525060200191505060405180910390fd5b836080015173ffffffffffffffffffffffffffffffffffffffff166340c10f1933836040518363ffffffff1660e01b8152600401808373ffffffffffffffffffffffffffffffffffffffff16815260200182815260200192505050600060405180830381600087803b1580156114fd57600080fd5b505af1158015611511573d6000803e3d6000fd5b505050503373ffffffffffffffffffffffffffffffffffffffff167f189c623b666b1b45b83d7178f39b8c087cb09774317ca2f53c2d3c3726f222a28984876020015161156b868a60a0015161408090919063ffffffff16565b604051808060200180602001858152602001848152602001838103835287818151815260200191508051906020019060200280838360005b838110156115be5780820151818401526020810190506115a3565b50505050905001838103825286818151815260200191508051906020019060200280838360005b838110156116005780820151818401526020810190506115e5565b50505050905001965050505050505060405180910390a280955050505050509392505050565b6000611630615748565b60405180610100016040528060008152602001600081526020016000815260200161165a87613bee565b81526020018660060160009054906101000a900473ffffffffffffffffffffffffffffffffffffffff1673ffffffffffffffffffffffffffffffffffffffff16815260200160008152602001866009018054806020026020016040519081016040528092919081815260200182805480156116f457602002820191906000526020600020905b8154815260200190600101908083116116e0575b505050505081526020018660080180548060200260200160405190810160405280929190818152602001828054801561174c57602002820191906000526020600020905b815481526020019060010190808311611738575b50505050508152509050806080015173ffffffffffffffffffffffffffffffffffffffff166318160ddd6040518163ffffffff1660e01b815260040160206040518083038186803b1580156117a057600080fd5b505afa1580156117b4573d6000803e3d6000fd5b505050506040513d60208110156117ca57600080fd5b81019080805190602001909291905050508160a001818152505060608560070180548060200260200160405190810160405280929190818152602001828054801561186a57602002820191906000526020600020905b8160009054906101000a900473ffffffffffffffffffffffffffffffffffffffff1673ffffffffffffffffffffffffffffffffffffffff1681526020019060010190808311611820575b5050505050905080518551146118e8576040517f08c379a00000000000000000000000000000000000000000000000000000000081526004018080602001828103825260208152602001807f416d6f756e74732073686f756c64206d6174636820706f6f6c20746f6b656e7381525060200191505060405180910390fd5b816080015173ffffffffffffffffffffffffffffffffffffffff166370a08231336040518263ffffffff1660e01b8152600401808273ffffffffffffffffffffffffffffffffffffffff16815260200191505060206040518083038186803b15801561195357600080fd5b505afa158015611967573d6000803e3d6000fd5b505050506040513d602081101561197d57600080fd5b8101908080519060200190929190505050841115801561199e575060008414155b611a10576040517f08c379a000000000000000000000000000000000000000000000000000000000815260040180806020018281038252600d8152602001807f3e4c502e62616c616e63654f660000000000000000000000000000000000000081525060200191505060405180910390fd5b6000611a2187600401548351614108565b90506060825167ffffffffffffffff81118015611a3d57600080fd5b50604051908082528060200260200182016040528015611a6c5781602001602082028036833780820191505090505b5090506060835167ffffffffffffffff81118015611a8957600080fd5b50604051908082528060200260200182016040528015611ab85781602001602082028036833780820191505090505b509050611ada611ad08660c001518760e00151613c00565b8660600151613d3e565b85600001818152505060005b8451811015611b6b57611b46898281518110611afe57fe5b60200260200101516040518060600160405280602381526020016158ae602391398860c001518481518110611b2f57fe5b602002602001015161428c9092919063ffffffff16565b828281518110611b5257fe5b6020026020010181815250508080600101915050611ae6565b50611b87611b7d828760e00151613c00565b8660600151613d3e565b85602001818152505060005b8451811015611d33576000611be28760000151611bd48960c001518581518110611bb957fe5b60200260200101518a6020015161415d90919063ffffffff16565b6141e390919063ffffffff16565b90506000611c0c848481518110611bf557fe5b60200260200101518361426c90919063ffffffff16565b9050611c386402540be400611c2a838961415d90919063ffffffff16565b6141e390919063ffffffff16565b858481518110611c4457fe5b602002602001018181525050611cb6611c946402540be400611c868f60050154898881518110611c7057fe5b602002602001015161415d90919063ffffffff16565b6141e390919063ffffffff16565b858581518110611ca057fe5b6020026020010151613ac990919063ffffffff16565b8c6009018481548110611cc557fe5b9060005260206000200181905550611d0c858481518110611ce257fe5b6020026020010151858581518110611cf657fe5b6020026020010151613ac990919063ffffffff16565b848481518110611d1857fe5b60200260200101818152505050508080600101915050611b93565b50611d4f611d45828760e00151613c00565b8660600151613d3e565b856040018181525050506000611da28560000151611d948760a00151611d8689604001518a60000151613ac990919063ffffffff16565b61415d90919063ffffffff16565b6141e390919063ffffffff16565b90506000811415611e1b576040517f08c379a000000000000000000000000000000000000000000000000000000000815260040180806020018281038252601b8152602001807f4275726e7420616d6f756e742063616e6e6f74206265207a65726f000000000081525060200191505060405180910390fd5b611e2f60018261408090919063ffffffff16565b905086811115611ea7576040517f08c379a000000000000000000000000000000000000000000000000000000000815260040180806020018281038252601b8152602001807f746f6b656e416d6f756e74203e206d61784275726e416d6f756e74000000000081525060200191505060405180910390fd5b846080015173ffffffffffffffffffffffffffffffffffffffff166379cc679033836040518363ffffffff1660e01b8152600401808373ffffffffffffffffffffffffffffffffffffffff16815260200182815260200192505050600060405180830381600087803b158015611f1c57600080fd5b505af1158015611f30573d6000803e3d6000fd5b5050505060005b8451811015611f9e57611f91338a8381518110611f5057fe5b6020026020010151878481518110611f6457fe5b602002602001015173ffffffffffffffffffffffffffffffffffffffff16613b4c9092919063ffffffff16565b8080600101915050611f37565b503373ffffffffffffffffffffffffffffffffffffffff167f3631c28b1f9dd213e0319fb167b554d76b6c283a41143eb400a0d1adb1af175589848860200151611ff5868b60a00151613ac990919063ffffffff16565b604051808060200180602001858152602001848152602001838103835287818151815260200191508051906020019060200280838360005b8381101561204857808201518184015260208101905061202d565b50505050905001838103825286818151815260200191508051906020019060200280838360005b8381101561208a57808201518184015260208101905061206f565b50505050905001965050505050505060405180910390a280955050505050509392505050565b6305f5e10081111561212a576040517f08c379a000000000000000000000000000000000000000000000000000000000815260040180806020018281038252600f8152602001807f46656520697320746f6f2068696768000000000000000000000000000000000081525060200191505060405180910390fd5b8082600401819055507fd88ea5155021c6f8dafa1a741e173f595cdf77ce7c17d43342131d7f06afdfe5816040518082815260200191505060405180910390a15050565b60006121cf85858585896009018054806020026020016040519081016040528092919081815260200182805480156121c557602002820191906000526020600020905b8154815260200190600101908083116121b1575b5050505050614346565b5080915050949350505050565b6402540be400811115612257576040517f08c379a000000000000000000000000000000000000000000000000000000000815260040180806020018281038252600f8152602001807f46656520697320746f6f2068696768000000000000000000000000000000000081525060200191505060405180910390fd5b8082600501819055507fab599d640ca80cde2b09b128a4154a8dfe608cb80f4c9399c8b954b01fd35f38816040518082815260200191505060405180910390a15050565b606061239e836009018054806020026020016040519081016040528092919081815260200182805480156122ee57602002820191906000526020600020905b8154815260200190600101908083116122da575b5050505050838560060160009054906101000a900473ffffffffffffffffffffffffffffffffffffffff1673ffffffffffffffffffffffffffffffffffffffff166318160ddd6040518163ffffffff1660e01b815260040160206040518083038186803b15801561235e57600080fd5b505afa158015612372573d6000803e3d6000fd5b505050506040513d602081101561238857600080fd5b810190808051906020019092919050505061455d565b905092915050565b6000806123c36123b584614696565b6123be85613bee565b613d3e565b905060008360060160009054906101000a900473ffffffffffffffffffffffffffffffffffffffff16905060008173ffffffffffffffffffffffffffffffffffffffff166318160ddd6040518163ffffffff1660e01b815260040160206040518083038186803b15801561243657600080fd5b505afa15801561244a573d6000803e3d6000fd5b505050506040513d602081101561246057600080fd5b8101908080519060200190929190505050905060008111156124b2576124a88161249a601260ff16600a0a8661415d90919063ffffffff16565b6141e390919063ffffffff16565b93505050506124ba565b600093505050505b919050565b606060008560060160009054906101000a900473ffffffffffffffffffffffffffffffffffffffff16905060608660070180548060200260200160405190810160405280929190818152602001828054801561257057602002820191906000526020600020905b8160009054906101000a900473ffffffffffffffffffffffffffffffffffffffff1673ffffffffffffffffffffffffffffffffffffffff1681526020019060010190808311612526575b505050505090508173ffffffffffffffffffffffffffffffffffffffff166370a08231336040518263ffffffff1660e01b8152600401808273ffffffffffffffffffffffffffffffffffffffff16815260200191505060206040518083038186803b1580156125de57600080fd5b505afa1580156125f2573d6000803e3d6000fd5b505050506040513d602081101561260857600080fd5b810190808051906020019092919050505086111561268e576040517f08c379a000000000000000000000000000000000000000000000000000000000815260040180806020018281038252600d8152602001807f3e4c502e62616c616e63654f660000000000000000000000000000000000000081525060200191505060405180910390fd5b80518585905014612707576040517f08c379a00000000000000000000000000000000000000000000000000000000081526004018080602001828103825260208152602001807f6d696e416d6f756e7473206d757374206d6174636820706f6f6c546f6b656e7381525060200191505060405180910390fd5b60608760090180548060200260200160405190810160405280929190818152602001828054801561275757602002820191906000526020600020905b815481526020019060010190808311612743575b5050505050905060008373ffffffffffffffffffffffffffffffffffffffff166318160ddd6040518163ffffffff1660e01b815260040160206040518083038186803b1580156127a657600080fd5b505afa1580156127ba573d6000803e3d6000fd5b505050506040513d60208110156127d057600080fd5b8101908080519060200190929190505050905060606127f0838a8461455d565b905060005b815181101561294d5788888281811061280a57fe5b9050602002013582828151811061281d57fe5b60200260200101511015612899576040517f08c379a000000000000000000000000000000000000000000000000000000000815260040180806020018281038252601a8152602001807f616d6f756e74735b695d203c206d696e416d6f756e74735b695d00000000000081525060200191505060405180910390fd5b6128d28282815181106128a857fe5b60200260200101518583815181106128bc57fe5b6020026020010151613ac990919063ffffffff16565b8b60090182815481106128e157fe5b9060005260206000200181905550612940338383815181106128ff57fe5b602002602001015187848151811061291357fe5b602002602001015173ffffffffffffffffffffffffffffffffffffffff16613b4c9092919063ffffffff16565b80806001019150506127f5565b508473ffffffffffffffffffffffffffffffffffffffff166379cc6790338b6040518363ffffffff1660e01b8152600401808373ffffffffffffffffffffffffffffffffffffffff16815260200182815260200192505050600060405180830381600087803b1580156129bf57600080fd5b505af11580156129d3573d6000803e3d6000fd5b505050503373ffffffffffffffffffffffffffffffffffffffff167f88d38ed598fdd809c2bf01ee49cd24b7fdabf379a83d29567952b60324d58cef82612a238c86613ac990919063ffffffff16565b6040518080602001838152602001828103825284818151815260200191508051906020019060200280838360005b83811015612a6c578082015181840152602081019050612a51565b50505050905001935050505060405180910390a28095505050505050949350505050565b600082600701805490508210612b0e576040517f08c379a00000000000000000000000000000000000000000000000000000000081526004018080602001828103825260188152602001807f546f6b656e20696e646578206f7574206f662072616e6765000000000000000081525060200191505060405180910390fd5b612c14836009018381548110612b2057fe5b9060005260206000200154846007018481548110612b3a57fe5b9060005260206000200160009054906101000a900473ffffffffffffffffffffffffffffffffffffffff1673ffffffffffffffffffffffffffffffffffffffff166370a08231306040518263ffffffff1660e01b8152600401808273ffffffffffffffffffffffffffffffffffffffff16815260200191505060206040518083038186803b158015612bcb57600080fd5b505afa158015612bdf573d6000803e3d6000fd5b505050506040513d6020811015612bf557600080fd5b8101908080519060200190929190505050613ac990919063ffffffff16565b905092915050565b600080612c2886613bee565b9050606086600901805480602002602001604051908101604052809291908181526020018280548015612c7a57602002820191906000526020600020905b815481526020019060010190808311612c66575b50505050509050606087600801805480602002602001604051908101604052809291908181526020018280548015612cd157602002820191906000526020600020905b815481526020019060010190808311612cbd575b505050505090506000612ced612ce78484613c00565b85613d3e565b905060005b8351811015612dce578615612d5657612d39898983818110612d1057fe5b90506020020135858381518110612d2357fe5b602002602001015161408090919063ffffffff16565b848281518110612d4557fe5b602002602001018181525050612dc1565b612da8898983818110612d6557fe5b905060200201356040518060600160405280602381526020016158ae60239139868481518110612d9157fe5b602002602001015161428c9092919063ffffffff16565b848281518110612db457fe5b6020026020010181815250505b8080600101915050612cf2565b506000612de4612dde8585613c00565b86613d3e565b905060008a60060160009054906101000a900473ffffffffffffffffffffffffffffffffffffffff1673ffffffffffffffffffffffffffffffffffffffff166318160ddd6040518163ffffffff1660e01b815260040160206040518083038186803b158015612e5257600080fd5b505afa158015612e66573d6000803e3d6000fd5b505050506040513d6020811015612e7c57600080fd5b810190808051906020019092919050505090508715612ed957612ecc83612ebe83612eb08787613ac990919063ffffffff16565b61415d90919063ffffffff16565b6141e390919063ffffffff16565b9650505050505050612f19565b612f1083612f0283612ef48688613ac990919063ffffffff16565b61415d90919063ffffffff16565b6141e390919063ffffffff16565b96505050505050505b949350505050565b600080866007018660ff1681548110612f3657fe5b9060005260206000200160009054906101000a900473ffffffffffffffffffffffffffffffffffffffff1690508073ffffffffffffffffffffffffffffffffffffffff166370a08231336040518263ffffffff1660e01b8152600401808273ffffffffffffffffffffffffffffffffffffffff16815260200191505060206040518083038186803b158015612fca57600080fd5b505afa158015612fde573d6000803e3d6000fd5b505050506040513d6020811015612ff457600080fd5b810190808051906020019092919050505084111561307a576040517f08c379a000000000000000000000000000000000000000000000000000000000815260040180806020018281038252601d8152602001807f43616e6e6f742073776170206d6f7265207468616e20796f75206f776e00000081525060200191505060405180910390fd5b60008173ffffffffffffffffffffffffffffffffffffffff166370a08231306040518263ffffffff1660e01b8152600401808273ffffffffffffffffffffffffffffffffffffffff16815260200191505060206040518083038186803b1580156130e357600080fd5b505afa1580156130f7573d6000803e3d6000fd5b505050506040513d602081101561310d57600080fd5b8101908080519060200190929190505050905061314d3330878573ffffffffffffffffffffffffffffffffffffffff16613fbf909392919063ffffffff16565b613201818373ffffffffffffffffffffffffffffffffffffffff166370a08231306040518263ffffffff1660e01b8152600401808273ffffffffffffffffffffffffffffffffffffffff16815260200191505060206040518083038186803b1580156131b857600080fd5b505afa1580156131cc573d6000803e3d6000fd5b505050506040513d60208110156131e257600080fd5b8101908080519060200190929190505050613ac990919063ffffffff16565b9450505060008060608860090180548060200260200160405190810160405280929190818152602001828054801561325857602002820191906000526020600020905b815481526020019060010190808311613244575b5050505050905061326c8989898985614346565b8093508194505050848310156132ea576040517f08c379a00000000000000000000000000000000000000000000000000000000081526004018080602001828103825260208152602001807f53776170206469646e277420726573756c7420696e206d696e20746f6b656e7381525060200191505060405180910390fd5b60006133488a6008018960ff168154811061330157fe5b906000526020600020015461333a6402540be40061332c8e600501548861415d90919063ffffffff16565b6141e390919063ffffffff16565b6141e390919063ffffffff16565b905061337387838b60ff168151811061335d57fe5b602002602001015161408090919063ffffffff16565b8a6009018a60ff168154811061338557fe5b90600052602060002001819055506133ce816133c086858c60ff16815181106133aa57fe5b6020026020010151613ac990919063ffffffff16565b613ac990919063ffffffff16565b8a6009018960ff16815481106133e057fe5b906000526020600020018190555061345533858c6007018b60ff168154811061340557fe5b9060005260206000200160009054906101000a900473ffffffffffffffffffffffffffffffffffffffff1673ffffffffffffffffffffffffffffffffffffffff16613b4c9092919063ffffffff16565b3373ffffffffffffffffffffffffffffffffffffffff167fc6c1e0630dbe9130cc068028486c0d118ddcea348550819defd5cb8c257f8a3888868c8c604051808581526020018481526020018360ff1681526020018260ff16815260200194505050505060405180910390a28394505050505095945050505050565b6305f5e10081565b60008061358c8585858860060160009054906101000a900473ffffffffffffffffffffffffffffffffffffffff1673ffffffffffffffffffffffffffffffffffffffff166318160ddd6040518163ffffffff1660e01b815260040160206040518083038186803b15801561354c57600080fd5b505afa158015613560573d6000803e3d6000fd5b505050506040513d602081101561357657600080fd5b810190808051906020019092919050505061474d565b509050809150509392505050565b6000808560060160009054906101000a900473ffffffffffffffffffffffffffffffffffffffff16905060608660070180548060200260200160405190810160405280929190818152602001828054801561364a57602002820191906000526020600020905b8160009054906101000a900473ffffffffffffffffffffffffffffffffffffffff1673ffffffffffffffffffffffffffffffffffffffff1681526020019060010190808311613600575b505050505090508173ffffffffffffffffffffffffffffffffffffffff166370a08231336040518263ffffffff1660e01b8152600401808273ffffffffffffffffffffffffffffffffffffffff16815260200191505060206040518083038186803b1580156136b857600080fd5b505afa1580156136cc573d6000803e3d6000fd5b505050506040513d60208110156136e257600080fd5b8101908080519060200190929190505050861115613768576040517f08c379a000000000000000000000000000000000000000000000000000000000815260040180806020018281038252600d8152602001807f3e4c502e62616c616e63654f660000000000000000000000000000000000000081525060200191505060405180910390fd5b80518560ff16106137e1576040517f08c379a000000000000000000000000000000000000000000000000000000000815260040180806020018281038252600f8152602001807f546f6b656e206e6f7420666f756e64000000000000000000000000000000000081525060200191505060405180910390fd5b60008273ffffffffffffffffffffffffffffffffffffffff166318160ddd6040518163ffffffff1660e01b815260040160206040518083038186803b15801561382957600080fd5b505afa15801561383d573d6000803e3d6000fd5b505050506040513d602081101561385357600080fd5b810190808051906020019092919050505090506000806138758a8a8a8661474d565b91509150868210156138ef576040517f08c379a000000000000000000000000000000000000000000000000000000000815260040180806020018281038252600e8152602001807f6479203c206d696e416d6f756e7400000000000000000000000000000000000081525060200191505060405180910390fd5b61395d6139326139236402540be4006139158e600501548661415d90919063ffffffff16565b6141e390919063ffffffff16565b8461408090919063ffffffff16565b8b6009018a60ff168154811061394457fe5b9060005260206000200154613ac990919063ffffffff16565b8a6009018960ff168154811061396f57fe5b90600052602060002001819055508473ffffffffffffffffffffffffffffffffffffffff166379cc6790338b6040518363ffffffff1660e01b8152600401808373ffffffffffffffffffffffffffffffffffffffff16815260200182815260200192505050600060405180830381600087803b1580156139ee57600080fd5b505af1158015613a02573d6000803e3d6000fd5b50505050613a473383868b60ff1681518110613a1a57fe5b602002602001015173ffffffffffffffffffffffffffffffffffffffff16613b4c9092919063ffffffff16565b3373ffffffffffffffffffffffffffffffffffffffff167f43fb02998f4e03da2e0e6fff53fdbf0c40a9f45f145dc377fc30615d7d7a8a648a858b86604051808581526020018481526020018360ff16815260200182815260200194505050505060405180910390a28195505050505050949350505050565b6402540be40081565b600082821115613b41576040517f08c379a000000000000000000000000000000000000000000000000000000000815260040180806020018281038252601e8152602001807f536166654d6174683a207375627472616374696f6e206f766572666c6f77000081525060200191505060405180910390fd5b818303905092915050565b613be98363a9059cbb60e01b8484604051602401808373ffffffffffffffffffffffffffffffffffffffff16815260200182815260200192505050604051602081830303815290604052907bffffffffffffffffffffffffffffffffffffffffffffffffffffffff19166020820180517bffffffffffffffffffffffffffffffffffffffffffffffffffffffff83818316178352505050506147d7565b505050565b6000613bf9826148c6565b9050919050565b606060008351905082518114613c7e576040517f08c379a000000000000000000000000000000000000000000000000000000000815260040180806020018281038252601f8152602001807f42616c616e636573206d757374206d61746368206d756c7469706c696572730081525060200191505060405180910390fd5b60608167ffffffffffffffff81118015613c9757600080fd5b50604051908082528060200260200182016040528015613cc65781602001602082028036833780820191505090505b50905060005b82811015613d3257613d0d858281518110613ce357fe5b6020026020010151878381518110613cf757fe5b602002602001015161415d90919063ffffffff16565b828281518110613d1957fe5b6020026020010181815250508080600101915050613ccc565b50809250505092915050565b60008083519050600080600090505b82811015613d8a57613d7b868281518110613d6457fe5b60200260200101518361408090919063ffffffff16565b91508080600101915050613d4d565b506000811415613d9f57600092505050613fb9565b6000808290506000613dba858861415d90919063ffffffff16565b905060005b610100811015613f4a57600083905060005b87811015613e3257613e23613e02898d8481518110613dec57fe5b602002602001015161415d90919063ffffffff16565b613e15878561415d90919063ffffffff16565b6141e390919063ffffffff16565b91508080600101915050613dd1565b50839450613f13613ea9613e6283613e5460018c61408090919063ffffffff16565b61415d90919063ffffffff16565b613e9b6064613e8d89613e7f60648b613ac990919063ffffffff16565b61415d90919063ffffffff16565b6141e390919063ffffffff16565b61408090919063ffffffff16565b613f0586613ef7613ec38c8761415d90919063ffffffff16565b613ee96064613edb8e8c61415d90919063ffffffff16565b6141e390919063ffffffff16565b61408090919063ffffffff16565b61415d90919063ffffffff16565b6141e390919063ffffffff16565b9350613f2885856149f690919063ffffffff16565b15613f3c5783975050505050505050613fb9565b508080600101915050613dbf565b506040517f08c379a00000000000000000000000000000000000000000000000000000000081526004018080602001828103825260138152602001807f4420646f6573206e6f7420636f6e76657267650000000000000000000000000081525060200191505060405180910390fd5b92915050565b61407a846323b872dd60e01b858585604051602401808473ffffffffffffffffffffffffffffffffffffffff1681526020018373ffffffffffffffffffffffffffffffffffffffff1681526020018281526020019350505050604051602081830303815290604052907bffffffffffffffffffffffffffffffffffffffffffffffffffffffff19166020820180517bffffffffffffffffffffffffffffffffffffffffffffffffffffffff83818316178352505050506147d7565b50505050565b6000808284019050838110156140fe576040517f08c379a000000000000000000000000000000000000000000000000000000000815260040180806020018281038252601b8152602001807f536166654d6174683a206164646974696f6e206f766572666c6f77000000000081525060200191505060405180910390fd5b8091505092915050565b60006141556141346004614126600186613ac990919063ffffffff16565b61415d90919063ffffffff16565b614147848661415d90919063ffffffff16565b6141e390919063ffffffff16565b905092915050565b60008083141561417057600090506141dd565b600082840290508284828161418157fe5b04146141d8576040517f08c379a00000000000000000000000000000000000000000000000000000000081526004018080602001828103825260218152602001806158636021913960400191505060405180910390fd5b809150505b92915050565b600080821161425a576040517f08c379a000000000000000000000000000000000000000000000000000000000815260040180806020018281038252601a8152602001807f536166654d6174683a206469766973696f6e206279207a65726f00000000000081525060200191505060405180910390fd5b81838161426357fe5b04905092915050565b600081831115614280578183039050614286565b82820390505b92915050565b6000838311158290614339576040517f08c379a00000000000000000000000000000000000000000000000000000000081526004018080602001828103825283818151815260200191508051906020019080838360005b838110156142fe5780820151818401526020810190506142e3565b50505050905090810190601f16801561432b5780820380516001836020036101000a031916815260200191505b509250505060405180910390fd5b5082840390509392505050565b60008060608760080180548060200260200160405190810160405280929190818152602001828054801561439957602002820191906000526020600020905b815481526020019060010190808311614385575b5050505050905060606143ac8583613c00565b905080518860ff161080156143c4575080518760ff16105b614436576040517f08c379a00000000000000000000000000000000000000000000000000000000081526004018080602001828103825260188152602001807f546f6b656e20696e646578206f7574206f662072616e6765000000000000000081525060200191505060405180910390fd5b6000614489828a60ff168151811061444a57fe5b602002602001015161447b858c60ff168151811061446457fe5b60200260200101518a61415d90919063ffffffff16565b61408090919063ffffffff16565b905060006144a26144998c613bee565b8b8b8587614a0e565b90506144e060016144d283868d60ff16815181106144bc57fe5b6020026020010151613ac990919063ffffffff16565b613ac990919063ffffffff16565b95506145106402540be4006145028d600401548961415d90919063ffffffff16565b6141e390919063ffffffff16565b945061454d848a60ff168151811061452457fe5b602002602001015161453f8789613ac990919063ffffffff16565b6141e390919063ffffffff16565b9550505050509550959350505050565b6060818311156145d5576040517f08c379a000000000000000000000000000000000000000000000000000000000815260040180806020018281038252601a8152602001807f43616e6e6f742065786365656420746f74616c20737570706c7900000000000081525060200191505060405180910390fd5b6060845167ffffffffffffffff811180156145ef57600080fd5b5060405190808252806020026020018201604052801561461e5781602001602082028036833780820191505090505b50905060005b855181101561468a57614665846146578789858151811061464157fe5b602002602001015161415d90919063ffffffff16565b6141e390919063ffffffff16565b82828151811061467157fe5b6020026020010181815250508080600101915050614624565b50809150509392505050565b6060614746826009018054806020026020016040519081016040528092919081815260200182805480156146e957602002820191906000526020600020905b8154815260200190600101908083116146d5575b50505050508360080180548060200260200160405190810160405280929190818152602001828054801561473c57602002820191906000526020600020905b815481526020019060010190808311614728575b5050505050613c00565b9050919050565b600080600080600061476189888a89614daa565b80935081945082955050505060006147c2846147b48c6008018b60ff168154811061478857fe5b90600052602060002001546147a68787613ac990919063ffffffff16565b6141e390919063ffffffff16565b613ac990919063ffffffff16565b90508381955095505050505094509492505050565b6060614839826040518060400160405280602081526020017f5361666545524332303a206c6f772d6c6576656c2063616c6c206661696c65648152508573ffffffffffffffffffffffffffffffffffffffff166151ba9092919063ffffffff16565b90506000815111156148c15780806020019051602081101561485a57600080fd5b81019080805190602001909291905050506148c0576040517f08c379a000000000000000000000000000000000000000000000000000000000815260040180806020018281038252602a815260200180615884602a913960400191505060405180910390fd5b5b505050565b60008082600301549050600083600101549050814210156149eb5760008460020154905060008560000154905080831115614973576149686149596149148487613ac990919063ffffffff16565b61494b61492a8642613ac990919063ffffffff16565b61493d8689613ac990919063ffffffff16565b61415d90919063ffffffff16565b6141e390919063ffffffff16565b8261408090919063ffffffff16565b9450505050506149f1565b6149e06149d161498c8487613ac990919063ffffffff16565b6149c36149a28642613ac990919063ffffffff16565b6149b58887613ac990919063ffffffff16565b61415d90919063ffffffff16565b6141e390919063ffffffff16565b82613ac990919063ffffffff16565b9450505050506149f1565b80925050505b919050565b60006001614a04848461426c565b1115905092915050565b600080825190508460ff168660ff161415614a91576040517f08c379a000000000000000000000000000000000000000000000000000000000815260040180806020018281038252601d8152602001807f43616e277420636f6d7061726520746f6b656e20746f20697473656c6600000081525060200191505060405180910390fd5b808660ff16108015614aa55750808560ff16105b614b17576040517f08c379a00000000000000000000000000000000000000000000000000000000081526004018080602001828103825260168152602001807f546f6b656e73206d75737420626520696e20706f6f6c0000000000000000000081525060200191505060405180910390fd5b6000614b238489613d3e565b90506000819050600080614b408b8661415d90919063ffffffff16565b9050600080600090505b86811015614bec578b60ff16811415614b6557899150614b90565b8a60ff168114614b8a57888181518110614b7b57fe5b60200260200101519150614b8f565b614bdf565b5b614ba3828561408090919063ffffffff16565b9350614bdc614bbb888461415d90919063ffffffff16565b614bce888861415d90919063ffffffff16565b6141e390919063ffffffff16565b94505b8080600101915050614b4a565b50614c37614c03878461415d90919063ffffffff16565b614c296064614c1b898961415d90919063ffffffff16565b61415d90919063ffffffff16565b6141e390919063ffffffff16565b93506000614c73614c6484614c5660648a61415d90919063ffffffff16565b6141e390919063ffffffff16565b8561408090919063ffffffff16565b905060008087905060005b610100811015614d3257819250614cf9614cc68a614cb887614caa60028861415d90919063ffffffff16565b61408090919063ffffffff16565b613ac990919063ffffffff16565b614ceb8a614cdd868761415d90919063ffffffff16565b61408090919063ffffffff16565b6141e390919063ffffffff16565b9150614d0e83836149f690919063ffffffff16565b15614d2557819a5050505050505050505050614da1565b8080600101915050614c7e565b506040517f08c379a000000000000000000000000000000000000000000000000000000000815260040180806020018281038252601e8152602001807f417070726f78696d6174696f6e20646964206e6f7420636f6e7665726765000081525060200191505060405180910390fd5b95945050505050565b60008060006060614dba88614696565b905080518760ff1610614e35576040517f08c379a00000000000000000000000000000000000000000000000000000000081526004018080602001828103825260188152602001807f546f6b656e20696e646578206f7574206f662072616e6765000000000000000081525060200191505060405180910390fd5b614e3d6157f0565b6040518060a001604052806000815260200160008152602001600081526020016000815260200160008152509050614e7489613bee565b816080018181525050614e8b828260800151613d3e565b816000018181525050614ed3614ec087614eb284600001518b61415d90919063ffffffff16565b6141e390919063ffffffff16565b8260000151613ac990919063ffffffff16565b816020018181525050818860ff1681518110614eeb57fe5b6020026020010151871115614f68576040517f08c379a000000000000000000000000000000000000000000000000000000000815260040180806020018281038252601a8152602001807f5769746864726177206578636565647320617661696c61626c6500000000000081525060200191505060405180910390fd5b614f7c8160800151898484602001516151d2565b8160400181815250506060825167ffffffffffffffff81118015614f9f57600080fd5b50604051908082528060200260200182016040528015614fce5781602001602082028036833780820191505090505b509050614fe08a600401548451614108565b82606001818152505060005b835181101561510457600084828151811061500357fe5b602002602001015190506150de6150cf6402540be4006150c187606001518f60ff16871461506f5761506a61505b8a6000015161504d8c602001518a61415d90919063ffffffff16565b6141e390919063ffffffff16565b87613ac990919063ffffffff16565b6150b3565b6150b289604001516150a48b600001516150968d602001518b61415d90919063ffffffff16565b6141e390919063ffffffff16565b613ac990919063ffffffff16565b5b61415d90919063ffffffff16565b6141e390919063ffffffff16565b82613ac990919063ffffffff16565b8383815181106150ea57fe5b602002602001018181525050508080600101915050614fec565b50600061514361511e84608001518c8587602001516151d2565b838c60ff168151811061512d57fe5b6020026020010151613ac990919063ffffffff16565b90506151878b6008018b60ff168154811061515a57fe5b9060005260206000200154615179600184613ac990919063ffffffff16565b6141e390919063ffffffff16565b9050808360400151858c60ff168151811061519e57fe5b6020026020010151965096509650505050509450945094915050565b60606151c984846000856154c0565b90509392505050565b60008083519050808560ff1610615251576040517f08c379a000000000000000000000000000000000000000000000000000000000815260040180806020018281038252600f8152602001807f546f6b656e206e6f7420666f756e64000000000000000000000000000000000081525060200191505060405180910390fd5b600083905060008061526c848a61415d90919063ffffffff16565b905060005b84811015615305578860ff1681146152f8576152a988828151811061529257fe5b60200260200101518461408090919063ffffffff16565b92506152f56152d4868a84815181106152be57fe5b602002602001015161415d90919063ffffffff16565b6152e7898761415d90919063ffffffff16565b6141e390919063ffffffff16565b93505b8080600101915050615271565b5061535061531c858361415d90919063ffffffff16565b61534260646153348a8861415d90919063ffffffff16565b61415d90919063ffffffff16565b6141e390919063ffffffff16565b9250600061538c61537d8361536f60648b61415d90919063ffffffff16565b6141e390919063ffffffff16565b8461408090919063ffffffff16565b905060008088905060005b610100811015615449578192506154126153df8b6153d1876153c360028861415d90919063ffffffff16565b61408090919063ffffffff16565b613ac990919063ffffffff16565b615404896153f6868761415d90919063ffffffff16565b61408090919063ffffffff16565b6141e390919063ffffffff16565b915061542783836149f690919063ffffffff16565b1561543c5781985050505050505050506154b8565b8080600101915050615397565b506040517f08c379a000000000000000000000000000000000000000000000000000000000815260040180806020018281038252601e8152602001807f417070726f78696d6174696f6e20646964206e6f7420636f6e7665726765000081525060200191505060405180910390fd5b949350505050565b60608247101561551b576040517f08c379a000000000000000000000000000000000000000000000000000000000815260040180806020018281038252602681526020018061583d6026913960400191505060405180910390fd5b61552485615669565b615596576040517f08c379a000000000000000000000000000000000000000000000000000000000815260040180806020018281038252601d8152602001807f416464726573733a2063616c6c20746f206e6f6e2d636f6e747261637400000081525060200191505060405180910390fd5b600060608673ffffffffffffffffffffffffffffffffffffffff1685876040518082805190602001908083835b602083106155e657805182526020820191506020810190506020830392506155c3565b6001836020036101000a03801982511681845116808217855250505050505090500191505060006040518083038185875af1925050503d8060008114615648576040519150601f19603f3d011682016040523d82523d6000602084013e61564d565b606091505b509150915061565d82828661567c565b92505050949350505050565b600080823b905060008111915050919050565b6060831561568c57829050615741565b60008351111561569f5782518084602001fd5b816040517f08c379a00000000000000000000000000000000000000000000000000000000081526004018080602001828103825283818151815260200191508051906020019080838360005b838110156157065780820151818401526020810190506156eb565b50505050905090810190601f1680156157335780820380516001836020036101000a031916815260200191505b509250505060405180910390fd5b9392505050565b60405180610100016040528060008152602001600081526020016000815260200160008152602001600073ffffffffffffffffffffffffffffffffffffffff1681526020016000815260200160608152602001606081525090565b8280548282559060005260206000209081019282156157df579160200282015b828111156157de5782518255916020019190600101906157c3565b5b5090506157ec919061581f565b5090565b6040518060a0016040528060008152602001600081526020016000815260200160008152602001600081525090565b5b80821115615838576000816000905550600101615820565b509056fe416464726573733a20696e73756666696369656e742062616c616e636520666f722063616c6c536166654d6174683a206d756c7469706c69636174696f6e206f766572666c6f775361666545524332303a204552433230206f7065726174696f6e20646964206e6f74207375636365656443616e6e6f74207769746864726177206d6f7265207468616e20617661696c61626c65a264697066735822122012cfd527d6c959842072ef6766c82368fcd22f00bbefeb582e1d11901eb768f064736f6c634300060c0033",
  "linkReferences": {},
  "deployedLinkReferences": {}
}